:100000000C9472000C9403030C943D010C94630156
:100010000C94DD040C9462040C94E7030C9493009C
:100020000C9493000C9493000C9493000C94930004
:100030000C9493000C9493000C9493000C949300F4
:100040000C9493000C9493000C9493000C949300E4
:100050000C947E010C9493000C9493000C949300E8
:100060000C9493000C94E8000C9493000C9493006F
:100070000C9493000C94F8000C9493000C9493004F
:100080000C9493000C9493000C9493000C949300A4
:100090000C9493000C9493000C9493000C94930094
:1000A0000C9493000C9493000C9493000C94930084
:1000B0000C9493000C9493000C9493000C94930074
:1000C0000C9493000C9493000C9493000C94930064
:1000D0000C9493000C9493000C9493000C94930054
:1000E0000C94930011241FBECFEFD1E2DEBFCDBF31
:1000F00000E00CBF12E0A0E0B2E0E0EDFEE000E0C6
:100100000BBF02C007900D92A030B107D9F712E0E3
:10011000A0E0B2E001C01D92AD31B107E1F70E944D
:100120002B030C9466070C9400008FE081B982B910
:100130001AB887E08BB91DB81EB888E18093010119
:100140008093020108959093C5008093C40088E9CC
:100150008093C1008EE48093C2000895E9E6F0E048
:1001600080818A6F8083EAE6F0E080818C638083FF
:100170008DB38F668DBB8CB38F668CBB0895109248
:10018000800084E0809381008EEE95E89093850056
:100190008093840081E080936F0086BB0895109265
:1001A000900081E08093910010929500109294004D
:1001B000089580E880937C008DEE80937A00089506
:1001C000982F8091C00085FFFCCF9093C6000895C2
:1001D0001F920F920FB60F9211248F938091C60039
:1001E000809312028F910F900FBE0F901F90189561
:1001F0001F920F920FB60F920BB60F9211242F93EE
:100200003F934F935F936F937F938F939F93AF939E
:10021000BF93EF93FF93609178007091790076958A
:1002200067957695679570E0882777FD8095982F7C
:100230000E9458069B01AC0160E070E48CE893E4F6
:100240000E94BD0560930E0270930F02809310020E
:1002500090931102FF91EF91BF91AF919F918F9178
:100260007F916F915F914F913F912F910F900BBEB6
:100270000F900FBE0F901F9018951F920F920FB600
:100280000F9211248F939F93809104029091050205
:1002900001969093050280930402499B06C08091C9
:1002A000C00085FFFCCF8BE205C08091C00085FFB8
:1002B000FCCF8DE28093C6009F918F910F900FBE6F
:1002C0000F901F9018951F920F920FB60F92112446
:1002D0008F934A9B06C08091C00085FFFCCF8BE2C4
:1002E00005C08091C00085FFFCCF8DE28093C600E1
:1002F0008F910F900FBE0F901F9018951F920F9225
:100300000FB60F920BB60F9211242F933F934F937A
:100310005F936F937F938F939F93AF93BF93EF936D
:10032000FF936091040270910502660F771F80E0D1
:1003300090E0609300027093010280930202909318
:1003400003022EEE35E8309385002093840010924E
:10035000050210920402209106023091070240E04B
:1003600050E00E9447070E94560660931502709362
:1003700016028093170290931802FF91EF91BF919C
:10038000AF919F918F917F916F915F914F913F912D
:100390002F910F900BBE0F900FBE0F901F901895CE
:1003A00091E89093A00099E09093A1001092A5008D
:1003B0001092A4008093A800089591E89093A00063
:1003C00099E09093A1001092A5001092A400809350
:1003D000AA00089531E83093A00029E02093A100FD
:1003E0001092A5001092A400805590408093A80020
:1003F000805B9F4F3093A0002093A1001092A50036
:100400001092A4008436910514F484E690E0809361
:10041000AA0085E082B908959C0181E88093A0003C
:1004200089E08093A1001092A5001092A400C90158
:100430002436310514F484E690E08093A80081E826
:100440008093A00089E08093A1001092A5001092F3
:10045000A400205530402093AA0085E082B9089579
:10046000CF93DF9320EA30E041E8E9014883A1EA35
:10047000B0E099E09C93E4EAF0E01182108280936E
:10048000A80048839C93118210828093AA0092B99D
:10049000DF91CF910895CF93DF9320EA30E041E8D8
:1004A000E9014883A1EAB0E099E09C93E4EAF0E036
:1004B000118210828093A80048839C93118210823D
:1004C0008093AA0086E082B9DF91CF910895CF93FF
:1004D000DF9320EA30E041E8E9014883A1EAB0E097
:1004E00099E09C93E4EAF0E0118210828093A800E6
:1004F00048839C93118210828093AA0085E082B980
:10050000DF91CF910895CF93DF9320EA30E041E867
:10051000E9014883A1EAB0E099E09C93E4EAF0E0C5
:10052000118210828093A80048839C9311821082CC
:100530008093AA008AE082B9DF91CF91089582B1B9
:100540008F6082B9739AE2E0F1E0808188608083F5
:10055000E1E9F0E080811082089580911B02909182
:100560001C02009779F48091080290910902892B6E
:10057000E1F480910A0290910B02892BB1F40E9460
:100580009F020895181619063CF480911902909163
:100590001A020E94EA010895892B39F0809119020C
:1005A00090911A020E940C02089580910802909185
:1005B0000902181619063CF4809113029091140256
:1005C0000E9467020895892B39F08091130290915F
:1005D00014020E948302089580910A0290910B02F6
:1005E000181619063CF480910C0290910D020E949D
:1005F0004B020895892B31F080910C0290910D02ED
:100600000E94300208951F920F920FB60F920BB600
:100610000F9211242F933F934F935F936F937F9388
:100620008F939F93AF93BF93EF93FF930E949F028B
:10063000FF91EF91BF91AF919F918F917F916F91BA
:100640005F914F913F912F910F900BBE0F900FBE76
:100650000F901F9018950E9495001092C5008FEC86
:100660008093C40088E98093C1008EE48093C20027
:100670000E94AE001092800084E0809381008EEE94
:1006800095E8909385008093840081E080936F00CB
:1006900086BB10929000809391001092950010926A
:1006A000940080E880937C008DEE80937A000E9415
:1006B0009F0288E10FB6F89480936000109260006A
:1006C0000FBE78940E94AD02FDCF2F923F924F92C1
:1006D0005F926F927F928F929F92AF92BF92CF92D2
:1006E000DF92EF92FF920F931F93DF93CF9300D08F
:1006F0000F92CDB7DEB76C011B014A012901B80189
:10070000621B730B882777FD8095982F0E945806EF
:1007100069837A838B839C83EE24D7FCE094FE2C40
:10072000C701B6010E9458067B018C01B1018827E0
:1007300077FD8095982F0E9458069B01AC01C80157
:10074000B7010E9458059B01AC0169817A818B81B8
:100750009C810E94E4067B018C0182189308AA24E4
:1007600097FCA094BA2CC501B4010E9458069B01C5
:10077000AC01C801B7010E94BD057B018C01662454
:1007800057FC6094762CC301B2010E9458069B016D
:10079000AC01C801B7010E9459050E942506CB0192
:1007A0000F900F900F900F90CF91DF911F910F91AD
:1007B000FF90EF90DF90CF90BF90AF909F908F9081
:1007C0007F906F905F904F903F902F9008951F9271
:1007D0000F920FB60F920BB60F9211240F931F9327
:1007E0002F933F934F935F936F937F938F939F9339
:1007F000AF93BF93EF93FF931092950010929400E4
:100800006599FECF609194007091950080E090E032
:100810000E94560620E030E040E85DE30E94E406D6
:1008200020E030E04AE754E40E94BD050E9425061E
:10083000DC01CB0168EE73E040ED57E021E03FEFD3
:100840000FEF10E00E9465038F3F910519F014F03F
:100850008FEF90E02FEF8130920714F481E09FEF4B
:1008600090930B0280930A024396879720F410928C
:100870000B0210920A0220910A0230910B0230936F
:100880000D0220930C0237FF08C088279927821B8E
:10089000930B90930D0280930C02FF91EF91BF9107
:1008A000AF919F918F917F916F915F914F913F9108
:1008B0002F911F910F910F900BBE0F900FBE0F90B5
:1008C0001F9018951F920F920FB60F920BB60F92B2
:1008D00011240F931F932F933F934F935F936F9325
:1008E0007F938F939F93AF93BF93EF93FF93109258
:1008F0009500109294006499FECF609194007091DD
:10090000950080E090E00E94560620E030E040E84C
:100910005DE30E94E40620E030E04AE754E40E94F0
:10092000BD050E942506DC01CB0168EE73E040EDB9
:1009300057E021E03FEF0FEF10E00E9465038F3F8B
:10094000910519F014F08FEF90E02FEF81309207AE
:1009500014F481E09FEF909309028093080243967C
:10096000879720F410920902109208022091080241
:1009700030910902309314022093130237FF08C00C
:1009800088279927821B930B90931402809313025C
:10099000FF91EF91BF91AF919F918F917F916F9157
:1009A0005F914F913F912F911F910F910F900BBE2F
:1009B0000F900FBE0F901F9018951F920F920FB6B9
:1009C0000F920BB60F9211240F931F932F933F9307
:1009D0004F935F936F937F938F939F93AF93BF9347
:1009E000EF93FF9310929500109294004B99FECFD5
:1009F000609194007091950080E090E00E9456060E
:100A000020E030E040E85DE30E94E40620E030E0D2
:100A10004AE754E40E94BD050E942506DC01CB0193
:100A200068EE73E040ED57E021E03FEF0FEF10E09C
:100A30000E9465038F3F910519F014F08FEF90E04D
:100A40002FEF8130920714F481E09FEF90931C0206
:100A500080931B024396879720F410921C021092F9
:100A60001B0220911B0230911C0230931A0220932A
:100A7000190237FF08C088279927821B930B909390
:100A80001A0280931902FF91EF91BF91AF919F914C
:100A90008F917F916F915F914F913F912F911F9116
:100AA0000F910F900BBE0F900FBE0F901F901895D7
:100AB0005058BB27AA270ED04DC13ED130F043D1AC
:100AC00020F031F49F3F11F41EF433C10EF4E09591
:100AD000E7FB29C1E92F4FD180F3BA1762077307EB
:100AE0008407950718F071F49EF567C10EF4E09540
:100AF0000B2EBA2FA02D0B01B90190010C01CA01D8
:100B0000A0011124FF27591B99F0593F50F4503E82
:100B100068F11A16F040A22F232F342F4427585F74
:100B2000F3CF469537952795A795F0405395C9F78C
:100B30007EF41F16BA0B620B730B840BBAF0915044
:100B4000A1F0FF0FBB1F661F771F881FC2F70EC0E3
:100B5000BA0F621F731F841F48F4879577956795B6
:100B6000B795F7959E3F08F0B3CF9395880F08F09F
:100B70009927EE0F9795879508950CD0EBC0E3D099
:100B800040F0DAD030F021F45F3F19F0CCC05111C1
:100B900015C1CFC0F0D098F39923C9F35523B1F311
:100BA000951B550BBB27AA2762177307840738F0DC
:100BB0009F5F5F4F220F331F441FAA1FA9F333D03B
:100BC0000E2E3AF0E0E830D091505040E695001CEF
:100BD000CAF729D0FE2F27D0660F771F881FBB1FAB
:100BE000261737074807AB07B0E809F0BB0B802D85
:100BF000BF01FF2793585F4F2AF09E3F510568F0D1
:100C000092C0DCC05F3FECF3983EDCF386957795AD
:100C10006795B795F7959F5FC9F7880F911D9695D2
:100C2000879597F90895E1E0660F771F881FBB1F2E
:100C3000621773078407BA0720F0621B730B840BDB
:100C4000BA0BEE1F88F7E095089504D06894B111AF
:100C5000B5C0089598D088F09F5790F0B92F992784
:100C6000B751A0F0D1F0660F771F881F991F1AF0B7
:100C7000BA95C9F712C0B13081F09FD0B1E00895A4
:100C80009CC0672F782F8827B85F39F0B93FCCF325
:100C9000869577956795B395D9F73EF490958095AD
:100CA000709561957F4F8F4F9F4F0895E89409C0CD
:100CB00097FB3EF490958095709561957F4F8F4F8F
:100CC0009F4F9923A9F0F92F96E9BB279395F695A5
:100CD000879577956795B795F111F8CFFAF4BB0F23
:100CE00011F460FF1BC06F5F7F4F8F4F9F4F16C087
:100CF000882311F096E911C0772321F09EE8872F11
:100D0000762F05C0662371F096E8862F70E060E0CC
:100D10002AF09A95660F771F881FDAF7880F969545
:100D2000879597F9089597F99F6780E870E060E0EC
:100D300008959FEF80EC089500240A941616170674
:100D400018060906089500240A94121613061406BC
:100D500005060895092E0394000C11F4882352F01F
:100D6000BB0F40F4BF2B11F460FF04C06F5F7F4FD7
:100D70008F4F9F4F089557FD9058440F551F59F0BE
:100D80005F3F71F04795880F97FB991F61F09F3F78
:100D900079F087950895121613061406551FF2CFA1
:100DA0004695F1DF08C0161617061806991FF1CFF1
:100DB00086957105610508940895E894BB27662718
:100DC0007727CB0197F908950BD0C4CFB5DF28F072
:100DD000BADF18F0952309F0A6CFABCF1124EECFE0
:100DE000CADFA0F3959FD1F3950F50E0551F629F86
:100DF000F001729FBB27F00DB11D639FAA27F00D74
:100E0000B11DAA1F649F6627B00DA11D661F829F9A
:100E10002227B00DA11D621F739FB00DA11D621F7F
:100E2000839FA00D611D221F749F3327A00D611D9C
:100E3000231F849F600D211D822F762F6A2F11247E
:100E40009F5750408AF0E1F088234AF0EE0FFF1FD1
:100E5000BB1F661F771F881F91505040A9F79E3F08
:100E6000510570F060CFAACF5F3FECF3983EDCF302
:100E7000869577956795B795F795E7959F5FC1F745
:100E8000FE2B880F911D9695879597F90895629F7F
:100E9000D001739FF001829FE00DF11D649FE00D72
:100EA000F11D929FF00D839FF00D749FF00D659FD3
:100EB000F00D9927729FB00DE11DF91F639FB00DD2
:100EC000E11DF91FBD01CF0111240895F894FFCF52
:00000001FF
